{
    "_format": "hh-sol-artifact-1",
    "contractName": "FARNFT",
    "sourceName": "contracts/FARNFT.sol",
    "abi": [
        {
            "inputs": [],
            "stateMutability": "payable",
            "type": "constructor"
        },
        {
            "anonymous": false,
            "inputs": [
                {
                    "indexed": true,
                    "internalType": "address",
                    "name": "owner",
                    "type": "address"
                },
                {
                    "indexed": true,
                    "internalType": "address",
                    "name": "approved",
                    "type": "address"
                },
                {
                    "indexed": true,
                    "internalType": "uint256",
                    "name": "tokenId",
                    "type": "uint256"
                }
            ],
            "name": "Approval",
            "type": "event"
        },
        {
            "anonymous": false,
            "inputs": [
                {
                    "indexed": true,
                    "internalType": "address",
                    "name": "owner",
                    "type": "address"
                },
                {
                    "indexed": true,
                    "internalType": "address",
                    "name": "operator",
                    "type": "address"
                },
                {
                    "indexed": false,
                    "internalType": "bool",
                    "name": "approved",
                    "type": "bool"
                }
            ],
            "name": "ApprovalForAll",
            "type": "event"
        },
        {
            "anonymous": false,
            "inputs": [
                {
                    "indexed": true,
                    "internalType": "address",
                    "name": "previousOwner",
                    "type": "address"
                },
                {
                    "indexed": true,
                    "internalType": "address",
                    "name": "newOwner",
                    "type": "address"
                }
            ],
            "name": "OwnershipTransferred",
            "type": "event"
        },
        {
            "anonymous": false,
            "inputs": [
                {
                    "indexed": true,
                    "internalType": "address",
                    "name": "from",
                    "type": "address"
                },
                {
                    "indexed": true,
                    "internalType": "address",
                    "name": "to",
                    "type": "address"
                },
                {
                    "indexed": true,
                    "internalType": "uint256",
                    "name": "tokenId",
                    "type": "uint256"
                }
            ],
            "name": "Transfer",
            "type": "event"
        },
        {
            "inputs": [
                {
                    "internalType": "address",
                    "name": "to",
                    "type": "address"
                },
                {
                    "internalType": "uint256",
                    "name": "tokenId",
                    "type": "uint256"
                }
            ],
            "name": "approve",
            "outputs": [],
            "stateMutability": "nonpayable",
            "type": "function"
        },
        {
            "inputs": [
                {
                    "internalType": "address",
                    "name": "owner",
                    "type": "address"
                }
            ],
            "name": "balanceOf",
            "outputs": [
                {
                    "internalType": "uint256",
                    "name": "",
                    "type": "uint256"
                }
            ],
            "stateMutability": "view",
            "type": "function"
        },
        {
            "inputs": [
                {
                    "internalType": "uint256",
                    "name": "tokenId",
                    "type": "uint256"
                }
            ],
            "name": "getApproved",
            "outputs": [
                {
                    "internalType": "address",
                    "name": "",
                    "type": "address"
                }
            ],
            "stateMutability": "view",
            "type": "function"
        },
        {
            "inputs": [
                {
                    "internalType": "address",
                    "name": "owner",
                    "type": "address"
                },
                {
                    "internalType": "address",
                    "name": "operator",
                    "type": "address"
                }
            ],
            "name": "isApprovedForAll",
            "outputs": [
                {
                    "internalType": "bool",
                    "name": "",
                    "type": "bool"
                }
            ],
            "stateMutability": "view",
            "type": "function"
        },
        {
            "inputs": [],
            "name": "isPublicMintEnabled",
            "outputs": [
                {
                    "internalType": "bool",
                    "name": "",
                    "type": "bool"
                }
            ],
            "stateMutability": "view",
            "type": "function"
        },
        {
            "inputs": [],
            "name": "maxPerWallet",
            "outputs": [
                {
                    "internalType": "uint256",
                    "name": "",
                    "type": "uint256"
                }
            ],
            "stateMutability": "view",
            "type": "function"
        },
        {
            "inputs": [],
            "name": "maxSuply",
            "outputs": [
                {
                    "internalType": "uint256",
                    "name": "",
                    "type": "uint256"
                }
            ],
            "stateMutability": "view",
            "type": "function"
        },
        {
            "inputs": [
                {
                    "internalType": "uint256",
                    "name": "_quantity",
                    "type": "uint256"
                }
            ],
            "name": "mint",
            "outputs": [],
            "stateMutability": "payable",
            "type": "function"
        },
        {
            "inputs": [],
            "name": "mintPrice",
            "outputs": [
                {
                    "internalType": "uint256",
                    "name": "",
                    "type": "uint256"
                }
            ],
            "stateMutability": "view",
            "type": "function"
        },
        {
            "inputs": [],
            "name": "name",
            "outputs": [
                {
                    "internalType": "string",
                    "name": "",
                    "type": "string"
                }
            ],
            "stateMutability": "view",
            "type": "function"
        },
        {
            "inputs": [],
            "name": "owner",
            "outputs": [
                {
                    "internalType": "address",
                    "name": "",
                    "type": "address"
                }
            ],
            "stateMutability": "view",
            "type": "function"
        },
        {
            "inputs": [
                {
                    "internalType": "uint256",
                    "name": "tokenId",
                    "type": "uint256"
                }
            ],
            "name": "ownerOf",
            "outputs": [
                {
                    "internalType": "address",
                    "name": "",
                    "type": "address"
                }
            ],
            "stateMutability": "view",
            "type": "function"
        },
        {
            "inputs": [],
            "name": "renounceOwnership",
            "outputs": [],
            "stateMutability": "nonpayable",
            "type": "function"
        },
        {
            "inputs": [
                {
                    "internalType": "address",
                    "name": "from",
                    "type": "address"
                },
                {
                    "internalType": "address",
                    "name": "to",
                    "type": "address"
                },
                {
                    "internalType": "uint256",
                    "name": "tokenId",
                    "type": "uint256"
                }
            ],
            "name": "safeTransferFrom",
            "outputs": [],
            "stateMutability": "nonpayable",
            "type": "function"
        },
        {
            "inputs": [
                {
                    "internalType": "address",
                    "name": "from",
                    "type": "address"
                },
                {
                    "internalType": "address",
                    "name": "to",
                    "type": "address"
                },
                {
                    "internalType": "uint256",
                    "name": "tokenId",
                    "type": "uint256"
                },
                {
                    "internalType": "bytes",
                    "name": "data",
                    "type": "bytes"
                }
            ],
            "name": "safeTransferFrom",
            "outputs": [],
            "stateMutability": "nonpayable",
            "type": "function"
        },
        {
            "inputs": [
                {
                    "internalType": "address",
                    "name": "operator",
                    "type": "address"
                },
                {
                    "internalType": "bool",
                    "name": "approved",
                    "type": "bool"
                }
            ],
            "name": "setApprovalForAll",
            "outputs": [],
            "stateMutability": "nonpayable",
            "type": "function"
        },
        {
            "inputs": [
                {
                    "internalType": "string",
                    "name": "_baseTokenUri",
                    "type": "string"
                }
            ],
            "name": "setBaseTokenUri",
            "outputs": [],
            "stateMutability": "nonpayable",
            "type": "function"
        },
        {
            "inputs": [
                {
                    "internalType": "bool",
                    "name": "_isPublicMintEnabled",
                    "type": "bool"
                }
            ],
            "name": "setIsPublicMintEnabled",
            "outputs": [],
            "stateMutability": "nonpayable",
            "type": "function"
        },
        {
            "inputs": [
                {
                    "internalType": "bytes4",
                    "name": "interfaceId",
                    "type": "bytes4"
                }
            ],
            "name": "supportsInterface",
            "outputs": [
                {
                    "internalType": "bool",
                    "name": "",
                    "type": "bool"
                }
            ],
            "stateMutability": "view",
            "type": "function"
        },
        {
            "inputs": [],
            "name": "symbol",
            "outputs": [
                {
                    "internalType": "string",
                    "name": "",
                    "type": "string"
                }
            ],
            "stateMutability": "view",
            "type": "function"
        },
        {
            "inputs": [
                {
                    "internalType": "uint256",
                    "name": "tokenId",
                    "type": "uint256"
                }
            ],
            "name": "tokenURI",
            "outputs": [
                {
                    "internalType": "string",
                    "name": "",
                    "type": "string"
                }
            ],
            "stateMutability": "view",
            "type": "function"
        },
        {
            "inputs": [
                {
                    "internalType": "uint256",
                    "name": "_tokenId",
                    "type": "uint256"
                }
            ],
            "name": "tokenUri",
            "outputs": [
                {
                    "internalType": "string",
                    "name": "",
                    "type": "string"
                }
            ],
            "stateMutability": "view",
            "type": "function"
        },
        {
            "inputs": [],
            "name": "totalSupply",
            "outputs": [
                {
                    "internalType": "uint256",
                    "name": "",
                    "type": "uint256"
                }
            ],
            "stateMutability": "view",
            "type": "function"
        },
        {
            "inputs": [
                {
                    "internalType": "address",
                    "name": "from",
                    "type": "address"
                },
                {
                    "internalType": "address",
                    "name": "to",
                    "type": "address"
                },
                {
                    "internalType": "uint256",
                    "name": "tokenId",
                    "type": "uint256"
                }
            ],
            "name": "transferFrom",
            "outputs": [],
            "stateMutability": "nonpayable",
            "type": "function"
        },
        {
            "inputs": [
                {
                    "internalType": "address",
                    "name": "newOwner",
                    "type": "address"
                }
            ],
            "name": "transferOwnership",
            "outputs": [],
            "stateMutability": "nonpayable",
            "type": "function"
        },
        {
            "inputs": [
                {
                    "internalType": "address",
                    "name": "",
                    "type": "address"
                }
            ],
            "name": "walletMints",
            "outputs": [
                {
                    "internalType": "uint256",
                    "name": "",
                    "type": "uint256"
                }
            ],
            "stateMutability": "view",
            "type": "function"
        },
        {
            "inputs": [],
            "name": "withdraw",
            "outputs": [],
            "stateMutability": "nonpayable",
            "type": "function"
        },
        {
            "inputs": [],
            "name": "withdrawWallet",
            "outputs": [
                {
                    "internalType": "address payable",
                    "name": "",
                    "type": "address"
                }
            ],
            "stateMutability": "view",
            "type": "function"
        }
    ],
    "bytecode": "0x600660808181526545524337323160d01b60a05261010060405260c09182526511905493919560d21b60e0529060006200003a838262000182565b50600162000049828262000182565b50505062000066620000606200008760201b60201c565b6200008b565b66470de4df82000060075560006008556127106009556003600a556200024e565b3390565b600680546001600160a01b038381166001600160a01b0319831681179093556040519116919082907f8be0079c531659141344cd1fd0a4f28419497f9722a3daafe3b4186f6b6457e090600090a35050565b634e487b7160e01b600052604160045260246000fd5b600181811c908216806200010857607f821691505b6020821081036200012957634e487b7160e01b600052602260045260246000fd5b50919050565b601f8211156200017d57600081815260208120601f850160051c81016020861015620001585750805b601f850160051c820191505b81811015620001795782815560010162000164565b5050505b505050565b81516001600160401b038111156200019e576200019e620000dd565b620001b681620001af8454620000f3565b846200012f565b602080601f831160018114620001ee5760008415620001d55750858301515b600019600386901b1c1916600185901b17855562000179565b600085815260208120601f198616915b828110156200021f57888601518255948401946001909101908401620001fe565b50858210156200023e5787850151600019600388901b60f8161c191681555b5050505050600190811b01905550565b611dae806200025e6000396000f3fe6080604052600436106101b75760003560e01c806370a08231116100ec578063a0712d681161008a578063c87b56dd11610064578063c87b56dd146104a2578063e985e9c5146104c2578063f0293fd3146104e2578063f2fde38b1461050f57600080fd5b8063a0712d681461044f578063a22cb46514610462578063b88d4fde1461048257600080fd5b80638da5cb5b116100c65780638da5cb5b146103e6578063908ea4711461040457806395652cfa1461041a57806395d89b411461043a57600080fd5b806370a082311461038c578063715018a6146103ac57806385d178f4146103c157600080fd5b80632373ac221161015957806342842e0e1161013357806342842e0e14610320578063453c2310146103405780636352211e146103565780636817c76c1461037657600080fd5b80632373ac22146102cb57806323b872dd146102eb5780633ccfd60b1461030b57600080fd5b8063081812fc11610195578063081812fc1461022d578063095ea7b3146102655780631675f4551461028757806318160ddd146102a757600080fd5b80630116bc2d146101bc57806301ffc9a7146101eb57806306fdde031461020b575b600080fd5b3480156101c857600080fd5b50600c546101d69060ff1681565b60405190151581526020015b60405180910390f35b3480156101f757600080fd5b506101d661020636600461169d565b61052f565b34801561021757600080fd5b50610220610581565b6040516101e2919061170a565b34801561023957600080fd5b5061024d61024836600461171d565b610613565b6040516001600160a01b0390911681526020016101e2565b34801561027157600080fd5b50610285610280366004611752565b61063a565b005b34801561029357600080fd5b506102206102a236600461171d565b610754565b3480156102b357600080fd5b506102bd60085481565b6040519081526020016101e2565b3480156102d757600080fd5b506102856102e636600461178c565b6107e2565b3480156102f757600080fd5b506102856103063660046117a7565b6107fd565b34801561031757600080fd5b5061028561082e565b34801561032c57600080fd5b5061028561033b3660046117a7565b6108d1565b34801561034c57600080fd5b506102bd600a5481565b34801561036257600080fd5b5061024d61037136600461171d565b6108ec565b34801561038257600080fd5b506102bd60075481565b34801561039857600080fd5b506102bd6103a73660046117e3565b61094c565b3480156103b857600080fd5b506102856109d2565b3480156103cd57600080fd5b50600c5461024d9061010090046001600160a01b031681565b3480156103f257600080fd5b506006546001600160a01b031661024d565b34801561041057600080fd5b506102bd60095481565b34801561042657600080fd5b506102856104353660046117fe565b6109e6565b34801561044657600080fd5b506102206109fb565b61028561045d36600461171d565b610a0a565b34801561046e57600080fd5b5061028561047d366004611870565b610c08565b34801561048e57600080fd5b5061028561049d3660046118b9565b610c13565b3480156104ae57600080fd5b506102206104bd36600461171d565b610c4b565b3480156104ce57600080fd5b506101d66104dd366004611995565b610cbf565b3480156104ee57600080fd5b506102bd6104fd3660046117e3565b600d6020526000908152604090205481565b34801561051b57600080fd5b5061028561052a3660046117e3565b610ced565b60006001600160e01b031982166380ac58cd60e01b148061056057506001600160e01b03198216635b5e139f60e01b145b8061057b57506301ffc9a760e01b6001600160e01b03198316145b92915050565b606060008054610590906119bf565b80601f01602080910402602001604051908101604052809291908181526020018280546105bc906119bf565b80156106095780601f106105de57610100808354040283529160200191610609565b820191906000526020600020905b8154815290600101906020018083116105ec57829003601f168201915b5050505050905090565b600061061e82610d63565b506000908152600460205260409020546001600160a01b031690565b6000610645826108ec565b9050806001600160a01b0316836001600160a01b0316036106b75760405162461bcd60e51b815260206004820152602160248201527f4552433732313a20617070726f76616c20746f2063757272656e74206f776e656044820152603960f91b60648201526084015b60405180910390fd5b336001600160a01b03821614806106d357506106d38133610cbf565b6107455760405162461bcd60e51b815260206004820152603d60248201527f4552433732313a20617070726f76652063616c6c6572206973206e6f7420746f60448201527f6b656e206f776e6572206f7220617070726f76656420666f7220616c6c00000060648201526084016106ae565b61074f8383610dc2565b505050565b6000818152600260205260409020546060906001600160a01b03166107b05760405162461bcd60e51b8152602060048201526012602482015271456c20746f6b656e206e6f2065786973746560701b60448201526064016106ae565b600b6107bb83610e30565b6040516020016107cc9291906119f9565b6040516020818303038152906040529050919050565b6107ea610ec3565b600c805460ff1916911515919091179055565b6108073382610f1d565b6108235760405162461bcd60e51b81526004016106ae90611a90565b61074f838383610f7c565b610836610ec3565b600c5460405160009161010090046001600160a01b03169047908381818185875af1925050503d8060008114610888576040519150601f19603f3d011682016040523d82523d6000602084013e61088d565b606091505b50509050806108ce5760405162461bcd60e51b815260206004820152600d60248201526c1dda5d1a191c985dc819985a5b609a1b60448201526064016106ae565b50565b61074f83838360405180602001604052806000815250610c13565b6000818152600260205260408120546001600160a01b03168061057b5760405162461bcd60e51b8152602060048201526018602482015277115490cdcc8c4e881a5b9d985b1a59081d1bdad95b88125160421b60448201526064016106ae565b60006001600160a01b0382166109b65760405162461bcd60e51b815260206004820152602960248201527f4552433732313a2061646472657373207a65726f206973206e6f7420612076616044820152683634b21037bbb732b960b91b60648201526084016106ae565b506001600160a01b031660009081526003602052604090205490565b6109da610ec3565b6109e460006110ed565b565b6109ee610ec3565b600b61074f828483611b2b565b606060018054610590906119bf565b600c5460ff16610a6a5760405162461bcd60e51b815260206004820152602560248201527f456c206d696e74656f207075626c69636f206e6f206573746120616269657274604482015264379030bab760d91b60648201526084016106ae565b600754610a779082611c02565b3414610add5760405162461bcd60e51b815260206004820152602f60248201527f4c612063616e64746964616420646520457468657220656e7669616461206e6f60448201526e206573206c6120636f72726563746160881b60648201526084016106ae565b60095481600854610aee9190611c19565b1115610b3c5760405162461bcd60e51b815260206004820152601760248201527f4e6f2068617920737566696369656e746573204e46547300000000000000000060448201526064016106ae565b600a54336000908152600d6020526040902054610b5a908390611c19565b1115610bb45760405162461bcd60e51b815260206004820152602360248201527f4861732061676f7461646f206c612063616e7469646164206465206d696e74656044820152626f732160e81b60648201526084016106ae565b60005b81811015610c045760006008546001610bd09190611c19565b600880549192506000610be283611c2c565b9190505550610bf1338261113f565b5080610bfc81611c2c565b915050610bb7565b5050565b610c04338383611159565b610c1d3383610f1d565b610c395760405162461bcd60e51b81526004016106ae90611a90565b610c4584848484611227565b50505050565b6060610c5682610d63565b6000610c6d60408051602081019091526000815290565b90506000815111610c8d5760405180602001604052806000815250610cb8565b80610c9784610e30565b604051602001610ca8929190611c45565b6040516020818303038152906040525b9392505050565b6001600160a01b03918216600090815260056020908152604080832093909416825291909152205460ff1690565b610cf5610ec3565b6001600160a01b038116610d5a5760405162461bcd60e51b815260206004820152602660248201527f4f776e61626c653a206e6577206f776e657220697320746865207a65726f206160448201526564647265737360d01b60648201526084016106ae565b6108ce816110ed565b6000818152600260205260409020546001600160a01b03166108ce5760405162461bcd60e51b8152602060048201526018602482015277115490cdcc8c4e881a5b9d985b1a59081d1bdad95b88125160421b60448201526064016106ae565b600081815260046020526040902080546001600160a01b0319166001600160a01b0384169081179091558190610df7826108ec565b6001600160a01b03167f8c5be1e5ebec7d5bd14f71427d1e84f3dd0314c0f7b2291e5b200ac8c7c3b92560405160405180910390a45050565b60606000610e3d8361125a565b600101905060008167ffffffffffffffff811115610e5d57610e5d6118a3565b6040519080825280601f01601f191660200182016040528015610e87576020820181803683370190505b5090508181016020015b600019016f181899199a1a9b1b9c1cb0b131b232b360811b600a86061a8153600a8504945084610e9157509392505050565b6006546001600160a01b031633146109e45760405162461bcd60e51b815260206004820181905260248201527f4f776e61626c653a2063616c6c6572206973206e6f7420746865206f776e657260448201526064016106ae565b600080610f29836108ec565b9050806001600160a01b0316846001600160a01b03161480610f505750610f508185610cbf565b80610f745750836001600160a01b0316610f6984610613565b6001600160a01b0316145b949350505050565b826001600160a01b0316610f8f826108ec565b6001600160a01b031614610fb55760405162461bcd60e51b81526004016106ae90611c74565b6001600160a01b0382166110175760405162461bcd60e51b8152602060048201526024808201527f4552433732313a207472616e7366657220746f20746865207a65726f206164646044820152637265737360e01b60648201526084016106ae565b6110248383836001611332565b826001600160a01b0316611037826108ec565b6001600160a01b03161461105d5760405162461bcd60e51b81526004016106ae90611c74565b600081815260046020908152604080832080546001600160a01b03199081169091556001600160a01b0387811680865260038552838620805460001901905590871680865283862080546001019055868652600290945282852080549092168417909155905184937fddf252ad1be2c89b69c2b068fc378daa952ba7f163c4a11628f55a4df523b3ef91a4505050565b600680546001600160a01b038381166001600160a01b0319831681179093556040519116919082907f8be0079c531659141344cd1fd0a4f28419497f9722a3daafe3b4186f6b6457e090600090a35050565b610c048282604051806020016040528060008152506113ba565b816001600160a01b0316836001600160a01b0316036111ba5760405162461bcd60e51b815260206004820152601960248201527f4552433732313a20617070726f766520746f2063616c6c65720000000000000060448201526064016106ae565b6001600160a01b03838116600081815260056020908152604080832094871680845294825291829020805460ff191686151590811790915591519182527f17307eab39ab6107e8899845ad3d59bd9653f200f220920489ca2b5937696c31910160405180910390a3505050565b611232848484610f7c565b61123e848484846113ed565b610c455760405162461bcd60e51b81526004016106ae90611cb9565b60008072184f03e93ff9f4daa797ed6e38ed64bf6a1f0160401b83106112995772184f03e93ff9f4daa797ed6e38ed64bf6a1f0160401b830492506040015b6d04ee2d6d415b85acef810000000083106112c5576d04ee2d6d415b85acef8100000000830492506020015b662386f26fc1000083106112e357662386f26fc10000830492506010015b6305f5e10083106112fb576305f5e100830492506008015b612710831061130f57612710830492506004015b60648310611321576064830492506002015b600a831061057b5760010192915050565b6001811115610c45576001600160a01b03841615611378576001600160a01b03841660009081526003602052604081208054839290611372908490611d0b565b90915550505b6001600160a01b03831615610c45576001600160a01b038316600090815260036020526040812080548392906113af908490611c19565b909155505050505050565b6113c483836114ee565b6113d160008484846113ed565b61074f5760405162461bcd60e51b81526004016106ae90611cb9565b60006001600160a01b0384163b156114e357604051630a85bd0160e11b81526001600160a01b0385169063150b7a0290611431903390899088908890600401611d1e565b6020604051808303816000875af192505050801561146c575060408051601f3d908101601f1916820190925261146991810190611d5b565b60015b6114c9573d80801561149a576040519150601f19603f3d011682016040523d82523d6000602084013e61149f565b606091505b5080516000036114c15760405162461bcd60e51b81526004016106ae90611cb9565b805181602001fd5b6001600160e01b031916630a85bd0160e11b149050610f74565b506001949350505050565b6001600160a01b0382166115445760405162461bcd60e51b815260206004820181905260248201527f4552433732313a206d696e7420746f20746865207a65726f206164647265737360448201526064016106ae565b6000818152600260205260409020546001600160a01b0316156115a95760405162461bcd60e51b815260206004820152601c60248201527f4552433732313a20746f6b656e20616c7265616479206d696e7465640000000060448201526064016106ae565b6115b7600083836001611332565b6000818152600260205260409020546001600160a01b03161561161c5760405162461bcd60e51b815260206004820152601c60248201527f4552433732313a20746f6b656e20616c7265616479206d696e7465640000000060448201526064016106ae565b6001600160a01b038216600081815260036020908152604080832080546001019055848352600290915280822080546001600160a01b0319168417905551839291907fddf252ad1be2c89b69c2b068fc378daa952ba7f163c4a11628f55a4df523b3ef908290a45050565b6001600160e01b0319811681146108ce57600080fd5b6000602082840312156116af57600080fd5b8135610cb881611687565b60005b838110156116d55781810151838201526020016116bd565b50506000910152565b600081518084526116f68160208601602086016116ba565b601f01601f19169290920160200192915050565b602081526000610cb860208301846116de565b60006020828403121561172f57600080fd5b5035919050565b80356001600160a01b038116811461174d57600080fd5b919050565b6000806040838503121561176557600080fd5b61176e83611736565b946020939093013593505050565b8035801515811461174d57600080fd5b60006020828403121561179e57600080fd5b610cb88261177c565b6000806000606084860312156117bc57600080fd5b6117c584611736565b92506117d360208501611736565b9150604084013590509250925092565b6000602082840312156117f557600080fd5b610cb882611736565b6000806020838503121561181157600080fd5b823567ffffffffffffffff8082111561182957600080fd5b818501915085601f83011261183d57600080fd5b81358181111561184c57600080fd5b86602082850101111561185e57600080fd5b60209290920196919550909350505050565b6000806040838503121561188357600080fd5b61188c83611736565b915061189a6020840161177c565b90509250929050565b634e487b7160e01b600052604160045260246000fd5b600080600080608085870312156118cf57600080fd5b6118d885611736565b93506118e660208601611736565b925060408501359150606085013567ffffffffffffffff8082111561190a57600080fd5b818701915087601f83011261191e57600080fd5b813581811115611930576119306118a3565b604051601f8201601f19908116603f01168101908382118183101715611958576119586118a3565b816040528281528a602084870101111561197157600080fd5b82602086016020830137600060208483010152809550505050505092959194509250565b600080604083850312156119a857600080fd5b6119b183611736565b915061189a60208401611736565b600181811c908216806119d357607f821691505b6020821081036119f357634e487b7160e01b600052602260045260246000fd5b50919050565b6000808454611a07816119bf565b60018281168015611a1f5760018114611a3457611a63565b60ff1984168752821515830287019450611a63565b8860005260208060002060005b85811015611a5a5781548a820152908401908201611a41565b50505082870194505b505050508351611a778183602088016116ba565b64173539b7b760d91b9101908152600501949350505050565b6020808252602d908201527f4552433732313a2063616c6c6572206973206e6f7420746f6b656e206f776e6560408201526c1c881bdc88185c1c1c9bdd9959609a1b606082015260800190565b601f82111561074f57600081815260208120601f850160051c81016020861015611b045750805b601f850160051c820191505b81811015611b2357828155600101611b10565b505050505050565b67ffffffffffffffff831115611b4357611b436118a3565b611b5783611b5183546119bf565b83611add565b6000601f841160018114611b8b5760008515611b735750838201355b600019600387901b1c1916600186901b178355611be5565b600083815260209020601f19861690835b82811015611bbc5786850135825560209485019460019092019101611b9c565b5086821015611bd95760001960f88860031b161c19848701351681555b505060018560011b0183555b5050505050565b634e487b7160e01b600052601160045260246000fd5b808202811582820484141761057b5761057b611bec565b8082018082111561057b5761057b611bec565b600060018201611c3e57611c3e611bec565b5060010190565b60008351611c578184602088016116ba565b835190830190611c6b8183602088016116ba565b01949350505050565b60208082526025908201527f4552433732313a207472616e736665722066726f6d20696e636f72726563742060408201526437bbb732b960d91b606082015260800190565b60208082526032908201527f4552433732313a207472616e7366657220746f206e6f6e20455243373231526560408201527131b2b4bb32b91034b6b83632b6b2b73a32b960711b606082015260800190565b8181038181111561057b5761057b611bec565b6001600160a01b0385811682528416602082015260408101839052608060608201819052600090611d51908301846116de565b9695505050505050565b600060208284031215611d6d57600080fd5b8151610cb88161168756fea26469706673582212209f0ccaf7f62ebef52f61a9660f4d0c40bc3089394e8dbca32b13e97d1c9e039c64736f6c63430008110033",
    "linkReferences": {},
    "deployedLinkReferences": {}
}